{
  "_format": "hh-sol-artifact-1",
  "contractName": "NFTMarketplace",
  "sourceName": "contracts/NFTMarketplace.sol",
  "abi": [
    {
      "inputs": [],
      "stateMutability": "nonpayable",
      "type": "constructor"
    },
    {
      "anonymous": false,
      "inputs": [
        {
          "indexed": true,
          "internalType": "address",
          "name": "owner",
          "type": "address"
        },
        {
          "indexed": true,
          "internalType": "address",
          "name": "approved",
          "type": "address"
        },
        {
          "indexed": true,
          "internalType": "uint256",
          "name": "tokenId",
          "type": "uint256"
        }
      ],
      "name": "Approval",
      "type": "event"
    },
    {
      "anonymous": false,
      "inputs": [
        {
          "indexed": true,
          "internalType": "address",
          "name": "owner",
          "type": "address"
        },
        {
          "indexed": true,
          "internalType": "address",
          "name": "operator",
          "type": "address"
        },
        {
          "indexed": false,
          "internalType": "bool",
          "name": "approved",
          "type": "bool"
        }
      ],
      "name": "ApprovalForAll",
      "type": "event"
    },
    {
      "anonymous": false,
      "inputs": [
        {
          "indexed": true,
          "internalType": "uint256",
          "name": "auctionId",
          "type": "uint256"
        },
        {
          "indexed": true,
          "internalType": "uint256",
          "name": "tokenId",
          "type": "uint256"
        },
        {
          "indexed": false,
          "internalType": "address",
          "name": "winner",
          "type": "address"
        },
        {
          "indexed": false,
          "internalType": "uint256",
          "name": "winningBid",
          "type": "uint256"
        }
      ],
      "name": "AuctionEnded",
      "type": "event"
    },
    {
      "anonymous": false,
      "inputs": [
        {
          "indexed": true,
          "internalType": "uint256",
          "name": "auctionId",
          "type": "uint256"
        },
        {
          "indexed": true,
          "internalType": "uint256",
          "name": "tokenId",
          "type": "uint256"
        },
        {
          "indexed": false,
          "internalType": "address",
          "name": "seller",
          "type": "address"
        },
        {
          "indexed": false,
          "internalType": "uint256",
          "name": "startingPrice",
          "type": "uint256"
        },
        {
          "indexed": false,
          "internalType": "uint256",
          "name": "endTime",
          "type": "uint256"
        },
        {
          "indexed": false,
          "internalType": "enum NFTMarketplace.AuctionDuration",
          "name": "duration",
          "type": "uint8"
        }
      ],
      "name": "AuctionStarted",
      "type": "event"
    },
    {
      "anonymous": false,
      "inputs": [
        {
          "indexed": false,
          "internalType": "uint256",
          "name": "_fromTokenId",
          "type": "uint256"
        },
        {
          "indexed": false,
          "internalType": "uint256",
          "name": "_toTokenId",
          "type": "uint256"
        }
      ],
      "name": "BatchMetadataUpdate",
      "type": "event"
    },
    {
      "anonymous": false,
      "inputs": [
        {
          "indexed": true,
          "internalType": "uint256",
          "name": "auctionId",
          "type": "uint256"
        },
        {
          "indexed": true,
          "internalType": "uint256",
          "name": "tokenId",
          "type": "uint256"
        },
        {
          "indexed": false,
          "internalType": "address",
          "name": "bidder",
          "type": "address"
        },
        {
          "indexed": false,
          "internalType": "uint256",
          "name": "amount",
          "type": "uint256"
        }
      ],
      "name": "BidPlaced",
      "type": "event"
    },
    {
      "anonymous": false,
      "inputs": [
        {
          "indexed": true,
          "internalType": "uint256",
          "name": "auctionId",
          "type": "uint256"
        },
        {
          "indexed": false,
          "internalType": "address",
          "name": "bidder",
          "type": "address"
        },
        {
          "indexed": false,
          "internalType": "uint256",
          "name": "amount",
          "type": "uint256"
        }
      ],
      "name": "BidWithdrawn",
      "type": "event"
    },
    {
      "anonymous": false,
      "inputs": [
        {
          "indexed": true,
          "internalType": "uint256",
          "name": "tokenId",
          "type": "uint256"
        },
        {
          "indexed": false,
          "internalType": "address",
          "name": "seller",
          "type": "address"
        },
        {
          "indexed": false,
          "internalType": "address",
          "name": "owner",
          "type": "address"
        },
        {
          "indexed": false,
          "internalType": "uint256",
          "name": "price",
          "type": "uint256"
        },
        {
          "indexed": false,
          "internalType": "bool",
          "name": "sold",
          "type": "bool"
        }
      ],
      "name": "MarketItemCreated",
      "type": "event"
    },
    {
      "anonymous": false,
      "inputs": [
        {
          "indexed": true,
          "internalType": "uint256",
          "name": "tokenId",
          "type": "uint256"
        },
        {
          "indexed": false,
          "internalType": "address",
          "name": "seller",
          "type": "address"
        },
        {
          "indexed": false,
          "internalType": "address",
          "name": "buyer",
          "type": "address"
        },
        {
          "indexed": false,
          "internalType": "uint256",
          "name": "price",
          "type": "uint256"
        }
      ],
      "name": "MarketItemSold",
      "type": "event"
    },
    {
      "anonymous": false,
      "inputs": [
        {
          "indexed": false,
          "internalType": "uint256",
          "name": "_tokenId",
          "type": "uint256"
        }
      ],
      "name": "MetadataUpdate",
      "type": "event"
    },
    {
      "anonymous": false,
      "inputs": [
        {
          "indexed": true,
          "internalType": "address",
          "name": "from",
          "type": "address"
        },
        {
          "indexed": true,
          "internalType": "address",
          "name": "to",
          "type": "address"
        },
        {
          "indexed": true,
          "internalType": "uint256",
          "name": "tokenId",
          "type": "uint256"
        }
      ],
      "name": "Transfer",
      "type": "event"
    },
    {
      "inputs": [
        {
          "internalType": "address",
          "name": "to",
          "type": "address"
        },
        {
          "internalType": "uint256",
          "name": "tokenId",
          "type": "uint256"
        }
      ],
      "name": "approve",
      "outputs": [],
      "stateMutability": "nonpayable",
      "type": "function"
    },
    {
      "inputs": [
        {
          "internalType": "address",
          "name": "owner",
          "type": "address"
        }
      ],
      "name": "balanceOf",
      "outputs": [
        {
          "internalType": "uint256",
          "name": "",
          "type": "uint256"
        }
      ],
      "stateMutability": "view",
      "type": "function"
    },
    {
      "inputs": [
        {
          "internalType": "uint256",
          "name": "tokenId",
          "type": "uint256"
        },
        {
          "internalType": "uint256",
          "name": "price",
          "type": "uint256"
        }
      ],
      "name": "createMarketItem",
      "outputs": [],
      "stateMutability": "payable",
      "type": "function"
    },
    {
      "inputs": [
        {
          "internalType": "uint256",
          "name": "tokenId",
          "type": "uint256"
        }
      ],
      "name": "createMarketSale",
      "outputs": [],
      "stateMutability": "payable",
      "type": "function"
    },
    {
      "inputs": [
        {
          "internalType": "string",
          "name": "tokenURI",
          "type": "string"
        },
        {
          "internalType": "uint256",
          "name": "price",
          "type": "uint256"
        }
      ],
      "name": "createToken",
      "outputs": [
        {
          "internalType": "uint256",
          "name": "",
          "type": "uint256"
        }
      ],
      "stateMutability": "payable",
      "type": "function"
    },
    {
      "inputs": [
        {
          "internalType": "uint256",
          "name": "tokenId",
          "type": "uint256"
        }
      ],
      "name": "endAuction",
      "outputs": [],
      "stateMutability": "nonpayable",
      "type": "function"
    },
    {
      "inputs": [],
      "name": "fetchActiveAuctions",
      "outputs": [
        {
          "components": [
            {
              "internalType": "uint256",
              "name": "auctionId",
              "type": "uint256"
            },
            {
              "internalType": "uint256",
              "name": "tokenId",
              "type": "uint256"
            },
            {
              "internalType": "address payable",
              "name": "seller",
              "type": "address"
            },
            {
              "internalType": "uint256",
              "name": "startingPrice",
              "type": "uint256"
            },
            {
              "internalType": "uint256",
              "name": "highestBid",
              "type": "uint256"
            },
            {
              "internalType": "address payable",
              "name": "highestBidder",
              "type": "address"
            },
            {
              "internalType": "uint256",
              "name": "startTime",
              "type": "uint256"
            },
            {
              "internalType": "uint256",
              "name": "endTime",
              "type": "uint256"
            },
            {
              "internalType": "enum NFTMarketplace.AuctionDuration",
              "name": "duration",
              "type": "uint8"
            },
            {
              "internalType": "bool",
              "name": "active",
              "type": "bool"
            },
            {
              "internalType": "bool",
              "name": "ended",
              "type": "bool"
            }
          ],
          "internalType": "struct NFTMarketplace.Auction[]",
          "name": "",
          "type": "tuple[]"
        }
      ],
      "stateMutability": "view",
      "type": "function"
    },
    {
      "inputs": [],
      "name": "fetchAllMarketItems",
      "outputs": [
        {
          "components": [
            {
              "internalType": "uint256",
              "name": "tokenId",
              "type": "uint256"
            },
            {
              "internalType": "address payable",
              "name": "seller",
              "type": "address"
            },
            {
              "internalType": "address payable",
              "name": "owner",
              "type": "address"
            },
            {
              "internalType": "uint256",
              "name": "price",
              "type": "uint256"
            },
            {
              "internalType": "bool",
              "name": "sold",
              "type": "bool"
            },
            {
              "internalType": "bool",
              "name": "listed",
              "type": "bool"
            },
            {
              "internalType": "bool",
              "name": "inAuction",
              "type": "bool"
            }
          ],
          "internalType": "struct NFTMarketplace.MarketItem[]",
          "name": "",
          "type": "tuple[]"
        }
      ],
      "stateMutability": "view",
      "type": "function"
    },
    {
      "inputs": [],
      "name": "fetchItemsListed",
      "outputs": [
        {
          "components": [
            {
              "internalType": "uint256",
              "name": "tokenId",
              "type": "uint256"
            },
            {
              "internalType": "address payable",
              "name": "seller",
              "type": "address"
            },
            {
              "internalType": "address payable",
              "name": "owner",
              "type": "address"
            },
            {
              "internalType": "uint256",
              "name": "price",
              "type": "uint256"
            },
            {
              "internalType": "bool",
              "name": "sold",
              "type": "bool"
            },
            {
              "internalType": "bool",
              "name": "listed",
              "type": "bool"
            },
            {
              "internalType": "bool",
              "name": "inAuction",
              "type": "bool"
            }
          ],
          "internalType": "struct NFTMarketplace.MarketItem[]",
          "name": "",
          "type": "tuple[]"
        }
      ],
      "stateMutability": "view",
      "type": "function"
    },
    {
      "inputs": [],
      "name": "fetchMarketItems",
      "outputs": [
        {
          "components": [
            {
              "internalType": "uint256",
              "name": "tokenId",
              "type": "uint256"
            },
            {
              "internalType": "address payable",
              "name": "seller",
              "type": "address"
            },
            {
              "internalType": "address payable",
              "name": "owner",
              "type": "address"
            },
            {
              "internalType": "uint256",
              "name": "price",
              "type": "uint256"
            },
            {
              "internalType": "bool",
              "name": "sold",
              "type": "bool"
            },
            {
              "internalType": "bool",
              "name": "listed",
              "type": "bool"
            },
            {
              "internalType": "bool",
              "name": "inAuction",
              "type": "bool"
            }
          ],
          "internalType": "struct NFTMarketplace.MarketItem[]",
          "name": "",
          "type": "tuple[]"
        }
      ],
      "stateMutability": "view",
      "type": "function"
    },
    {
      "inputs": [],
      "name": "fetchMyNFTs",
      "outputs": [
        {
          "components": [
            {
              "internalType": "uint256",
              "name": "tokenId",
              "type": "uint256"
            },
            {
              "internalType": "address payable",
              "name": "seller",
              "type": "address"
            },
            {
              "internalType": "address payable",
              "name": "owner",
              "type": "address"
            },
            {
              "internalType": "uint256",
              "name": "price",
              "type": "uint256"
            },
            {
              "internalType": "bool",
              "name": "sold",
              "type": "bool"
            },
            {
              "internalType": "bool",
              "name": "listed",
              "type": "bool"
            },
            {
              "internalType": "bool",
              "name": "inAuction",
              "type": "bool"
            }
          ],
          "internalType": "struct NFTMarketplace.MarketItem[]",
          "name": "",
          "type": "tuple[]"
        }
      ],
      "stateMutability": "view",
      "type": "function"
    },
    {
      "inputs": [
        {
          "internalType": "uint256",
          "name": "tokenId",
          "type": "uint256"
        }
      ],
      "name": "getApproved",
      "outputs": [
        {
          "internalType": "address",
          "name": "",
          "type": "address"
        }
      ],
      "stateMutability": "view",
      "type": "function"
    },
    {
      "inputs": [
        {
          "internalType": "uint256",
          "name": "tokenId",
          "type": "uint256"
        }
      ],
      "name": "getAuction",
      "outputs": [
        {
          "components": [
            {
              "internalType": "uint256",
              "name": "auctionId",
              "type": "uint256"
            },
            {
              "internalType": "uint256",
              "name": "tokenId",
              "type": "uint256"
            },
            {
              "internalType": "address payable",
              "name": "seller",
              "type": "address"
            },
            {
              "internalType": "uint256",
              "name": "startingPrice",
              "type": "uint256"
            },
            {
              "internalType": "uint256",
              "name": "highestBid",
              "type": "uint256"
            },
            {
              "internalType": "address payable",
              "name": "highestBidder",
              "type": "address"
            },
            {
              "internalType": "uint256",
              "name": "startTime",
              "type": "uint256"
            },
            {
              "internalType": "uint256",
              "name": "endTime",
              "type": "uint256"
            },
            {
              "internalType": "enum NFTMarketplace.AuctionDuration",
              "name": "duration",
              "type": "uint8"
            },
            {
              "internalType": "bool",
              "name": "active",
              "type": "bool"
            },
            {
              "internalType": "bool",
              "name": "ended",
              "type": "bool"
            }
          ],
          "internalType": "struct NFTMarketplace.Auction",
          "name": "",
          "type": "tuple"
        }
      ],
      "stateMutability": "view",
      "type": "function"
    },
    {
      "inputs": [
        {
          "internalType": "uint256",
          "name": "tokenId",
          "type": "uint256"
        },
        {
          "internalType": "address",
          "name": "bidder",
          "type": "address"
        }
      ],
      "name": "getBidAmount",
      "outputs": [
        {
          "internalType": "uint256",
          "name": "",
          "type": "uint256"
        }
      ],
      "stateMutability": "view",
      "type": "function"
    },
    {
      "inputs": [],
      "name": "getListingPrice",
      "outputs": [
        {
          "internalType": "uint256",
          "name": "",
          "type": "uint256"
        }
      ],
      "stateMutability": "view",
      "type": "function"
    },
    {
      "inputs": [
        {
          "internalType": "uint256",
          "name": "tokenId",
          "type": "uint256"
        }
      ],
      "name": "getMarketItem",
      "outputs": [
        {
          "components": [
            {
              "internalType": "uint256",
              "name": "tokenId",
              "type": "uint256"
            },
            {
              "internalType": "address payable",
              "name": "seller",
              "type": "address"
            },
            {
              "internalType": "address payable",
              "name": "owner",
              "type": "address"
            },
            {
              "internalType": "uint256",
              "name": "price",
              "type": "uint256"
            },
            {
              "internalType": "bool",
              "name": "sold",
              "type": "bool"
            },
            {
              "internalType": "bool",
              "name": "listed",
              "type": "bool"
            },
            {
              "internalType": "bool",
              "name": "inAuction",
              "type": "bool"
            }
          ],
          "internalType": "struct NFTMarketplace.MarketItem",
          "name": "",
          "type": "tuple"
        }
      ],
      "stateMutability": "view",
      "type": "function"
    },
    {
      "inputs": [
        {
          "internalType": "uint256",
          "name": "tokenId",
          "type": "uint256"
        }
      ],
      "name": "getTokenCreator",
      "outputs": [
        {
          "internalType": "address",
          "name": "",
          "type": "address"
        }
      ],
      "stateMutability": "view",
      "type": "function"
    },
    {
      "inputs": [
        {
          "internalType": "address",
          "name": "owner",
          "type": "address"
        },
        {
          "internalType": "address",
          "name": "operator",
          "type": "address"
        }
      ],
      "name": "isApprovedForAll",
      "outputs": [
        {
          "internalType": "bool",
          "name": "",
          "type": "bool"
        }
      ],
      "stateMutability": "view",
      "type": "function"
    },
    {
      "inputs": [
        {
          "internalType": "uint256",
          "name": "tokenId",
          "type": "uint256"
        }
      ],
      "name": "isAuctionEnded",
      "outputs": [
        {
          "internalType": "bool",
          "name": "",
          "type": "bool"
        }
      ],
      "stateMutability": "view",
      "type": "function"
    },
    {
      "inputs": [],
      "name": "name",
      "outputs": [
        {
          "internalType": "string",
          "name": "",
          "type": "string"
        }
      ],
      "stateMutability": "view",
      "type": "function"
    },
    {
      "inputs": [
        {
          "internalType": "uint256",
          "name": "tokenId",
          "type": "uint256"
        }
      ],
      "name": "ownerOf",
      "outputs": [
        {
          "internalType": "address",
          "name": "",
          "type": "address"
        }
      ],
      "stateMutability": "view",
      "type": "function"
    },
    {
      "inputs": [
        {
          "internalType": "uint256",
          "name": "tokenId",
          "type": "uint256"
        }
      ],
      "name": "placeBid",
      "outputs": [],
      "stateMutability": "payable",
      "type": "function"
    },
    {
      "inputs": [
        {
          "internalType": "address",
          "name": "from",
          "type": "address"
        },
        {
          "internalType": "address",
          "name": "to",
          "type": "address"
        },
        {
          "internalType": "uint256",
          "name": "tokenId",
          "type": "uint256"
        }
      ],
      "name": "safeTransferFrom",
      "outputs": [],
      "stateMutability": "nonpayable",
      "type": "function"
    },
    {
      "inputs": [
        {
          "internalType": "address",
          "name": "from",
          "type": "address"
        },
        {
          "internalType": "address",
          "name": "to",
          "type": "address"
        },
        {
          "internalType": "uint256",
          "name": "tokenId",
          "type": "uint256"
        },
        {
          "internalType": "bytes",
          "name": "data",
          "type": "bytes"
        }
      ],
      "name": "safeTransferFrom",
      "outputs": [],
      "stateMutability": "nonpayable",
      "type": "function"
    },
    {
      "inputs": [
        {
          "internalType": "address",
          "name": "operator",
          "type": "address"
        },
        {
          "internalType": "bool",
          "name": "approved",
          "type": "bool"
        }
      ],
      "name": "setApprovalForAll",
      "outputs": [],
      "stateMutability": "nonpayable",
      "type": "function"
    },
    {
      "inputs": [
        {
          "internalType": "uint256",
          "name": "tokenId",
          "type": "uint256"
        },
        {
          "internalType": "uint256",
          "name": "startingPrice",
          "type": "uint256"
        },
        {
          "internalType": "enum NFTMarketplace.AuctionDuration",
          "name": "duration",
          "type": "uint8"
        }
      ],
      "name": "startAuction",
      "outputs": [],
      "stateMutability": "nonpayable",
      "type": "function"
    },
    {
      "inputs": [
        {
          "internalType": "bytes4",
          "name": "interfaceId",
          "type": "bytes4"
        }
      ],
      "name": "supportsInterface",
      "outputs": [
        {
          "internalType": "bool",
          "name": "",
          "type": "bool"
        }
      ],
      "stateMutability": "view",
      "type": "function"
    },
    {
      "inputs": [],
      "name": "symbol",
      "outputs": [
        {
          "internalType": "string",
          "name": "",
          "type": "string"
        }
      ],
      "stateMutability": "view",
      "type": "function"
    },
    {
      "inputs": [
        {
          "internalType": "uint256",
          "name": "tokenId",
          "type": "uint256"
        }
      ],
      "name": "tokenURI",
      "outputs": [
        {
          "internalType": "string",
          "name": "",
          "type": "string"
        }
      ],
      "stateMutability": "view",
      "type": "function"
    },
    {
      "inputs": [
        {
          "internalType": "address",
          "name": "from",
          "type": "address"
        },
        {
          "internalType": "address",
          "name": "to",
          "type": "address"
        },
        {
          "internalType": "uint256",
          "name": "tokenId",
          "type": "uint256"
        }
      ],
      "name": "transferFrom",
      "outputs": [],
      "stateMutability": "nonpayable",
      "type": "function"
    },
    {
      "inputs": [
        {
          "internalType": "uint256",
          "name": "_listingPrice",
          "type": "uint256"
        }
      ],
      "name": "updateListingPrice",
      "outputs": [],
      "stateMutability": "nonpayable",
      "type": "function"
    },
    {
      "inputs": [
        {
          "internalType": "uint256",
          "name": "tokenId",
          "type": "uint256"
        }
      ],
      "name": "withdrawBid",
      "outputs": [],
      "stateMutability": "nonpayable",
      "type": "function"
    },
    {
      "inputs": [
        {
          "internalType": "uint256",
          "name": "tokenId",
          "type": "uint256"
        }
      ],
      "name": "withdrawListingItem",
      "outputs": [],
      "stateMutability": "nonpayable",
      "type": "function"
    }
  ],
  "bytecode": "0x60806040526658d15e17628000600a553480156200001c57600080fd5b506040518060400160405280600f81526020016e4e4654204d61726b6574706c61636560881b815250604051806040016040528060048152602001634e46544d60e01b815250816000908162000073919062000147565b50600162000082828262000147565b5050600160075550600b80546001600160a01b0319163317905562000213565b634e487b7160e01b600052604160045260246000fd5b600181811c90821680620000cd57607f821691505b602082108103620000ee57634e487b7160e01b600052602260045260246000fd5b50919050565b601f8211156200014257600081815260208120601f850160051c810160208610156200011d5750805b601f850160051c820191505b818110156200013e5782815560010162000129565b5050505b505050565b81516001600160401b03811115620001635762000163620000a2565b6200017b81620001748454620000b8565b84620000f4565b602080601f831160018114620001b357600084156200019a5750858301515b600019600386901b1c1916600185901b1785556200013e565b600085815260208120601f198616915b82811015620001e457888601518255948401946001909101908401620001c3565b5085821015620002035787850151600019600388901b60f8161c191681555b5050505050600190811b01905550565b613c2d80620002236000396000f3fe6080604052600436106101ee5760003560e01c806378bd79351161010d578063b88d4fde116100a0578063c7be7a491161006f578063c7be7a4914610596578063c87b56dd146105c3578063dfb6452b146105e3578063e985e9c5146105f8578063f1d9e5451461064157600080fd5b8063b88d4fde14610523578063b9a2de3a14610543578063bb6e46fb14610563578063be9af5361461058357600080fd5b8063998f1b87116100dc578063998f1b8714610480578063a22cb465146104a0578063ae677aa3146104c0578063b47089b4146104e057600080fd5b806378bd7935146103f5578063934689a91461042257806395d89b41146104585780639979ef451461046d57600080fd5b806323b872dd1161018557806345f8fa801161015457806345f8fa801461038d5780636352211e146103a257806370a08231146103c257806372b3b620146103e257600080fd5b806323b872dd1461031a5780633279d4b01461033a578063361c19951461035a57806342842e0e1461036d57600080fd5b80630eaaf4c8116101c15780630eaaf4c8146102a45780630f08efe0146102c457806312e85585146102e6578063202e37401461030557600080fd5b806301ffc9a7146101f357806306fdde0314610228578063081812fc1461024a578063095ea7b314610282575b600080fd5b3480156101ff57600080fd5b5061021361020e36600461333c565b610663565b60405190151581526020015b60405180910390f35b34801561023457600080fd5b5061023d61068e565b60405161021f91906133a9565b34801561025657600080fd5b5061026a6102653660046133bc565b610720565b6040516001600160a01b03909116815260200161021f565b34801561028e57600080fd5b506102a261029d3660046133f1565b610747565b005b3480156102b057600080fd5b506102a26102bf3660046133bc565b610861565b3480156102d057600080fd5b506102d9610967565b60405161021f9190613473565b3480156102f257600080fd5b50600a545b60405190815260200161021f565b34801561031157600080fd5b506102d9610b2a565b34801561032657600080fd5b506102a26103353660046134c1565b610cfd565b34801561034657600080fd5b506102a26103553660046133bc565b610d2e565b6102a26103683660046134fd565b610ea3565b34801561037957600080fd5b506102a26103883660046134c1565b6110e5565b34801561039957600080fd5b506102d9611100565b3480156103ae57600080fd5b5061026a6103bd3660046133bc565b611399565b3480156103ce57600080fd5b506102f76103dd36600461351f565b6113f9565b6102f76103f03660046135c6565b61147f565b34801561040157600080fd5b506104156104103660046133bc565b6115b0565b60405161021f91906136f8565b34801561042e57600080fd5b5061026a61043d3660046133bc565b6000908152600d60205260409020546001600160a01b031690565b34801561046457600080fd5b5061023d611694565b6102a261047b3660046133bc565b6116a3565b34801561048c57600080fd5b5061021361049b3660046133bc565b611926565b3480156104ac57600080fd5b506102a26104bb366004613707565b611955565b3480156104cc57600080fd5b506102a26104db3660046133bc565b611960565b3480156104ec57600080fd5b506102f76104fb366004613743565b6000918252600f602090815260408084206001600160a01b0393909316845291905290205490565b34801561052f57600080fd5b506102a261053e36600461376f565b6119cb565b34801561054f57600080fd5b506102a261055e3660046133bc565b611a03565b34801561056f57600080fd5b506102a261057e3660046137eb565b611cf0565b6102a26105913660046133bc565b6120ae565b3480156105a257600080fd5b506105b66105b13660046133bc565b6122f7565b60405161021f9190613828565b3480156105cf57600080fd5b5061023d6105de3660046133bc565b612380565b3480156105ef57600080fd5b506102d9612490565b34801561060457600080fd5b50610213610613366004613836565b6001600160a01b03918216600090815260056020908152604080832093909416825291909152205460ff1690565b34801561064d57600080fd5b506106566125d9565b60405161021f9190613860565b60006001600160e01b03198216632483248360e11b148061068857506106888261284e565b92915050565b60606000805461069d906138a3565b80601f01602080910402602001604051908101604052809291908181526020018280546106c9906138a3565b80156107165780601f106106eb57610100808354040283529160200191610716565b820191906000526020600020905b8154815290600101906020018083116106f957829003601f168201915b5050505050905090565b600061072b8261289e565b506000908152600460205260409020546001600160a01b031690565b600061075282611399565b9050806001600160a01b0316836001600160a01b0316036107c45760405162461bcd60e51b815260206004820152602160248201527f4552433732313a20617070726f76616c20746f2063757272656e74206f776e656044820152603960f91b60648201526084015b60405180910390fd5b336001600160a01b03821614806107e057506107e08133610613565b6108525760405162461bcd60e51b815260206004820152603d60248201527f4552433732313a20617070726f76652063616c6c6572206973206e6f7420746f60448201527f6b656e206f776e6572206f7220617070726f76656420666f7220616c6c00000060648201526084016107bb565b61085c83836128fd565b505050565b61086961296b565b6000818152600f602090815260408083203384529091529020546108c45760405162461bcd60e51b81526020600482015260126024820152714e6f2062696420746f20776974686472617760701b60448201526064016107bb565b6000818152600f60209081526040808320338085529252808320805490849055905190926108fc841502918491818181858888f1935050505015801561090e573d6000803e3d6000fd5b506000828152600e6020908152604091829020548251338152918201849052917f8f8619524e8d462cead34604bd2247ede24175801481e4d0b8059ac8aa41c301910160405180910390a2506109646001600755565b50565b6060600061097460085490565b9050600061098160095490565b60085461098e91906138f3565b90506000808267ffffffffffffffff8111156109ac576109ac61353a565b6040519080825280602002602001820160405280156109e557816020015b6109d261326d565b8152602001906001900390816109ca5790505b50905060005b84811015610b2157600c6000610a02836001613906565b8152602081019190915260400160002060040154610100900460ff168015610a4d5750600c6000610a34836001613906565b815260208101919091526040016000206004015460ff16155b15610b0f576000610a5f826001613906565b6000818152600c6020908152604091829020825160e0810184528154815260018201546001600160a01b039081169382019390935260028201549092169282019290925260038201546060820152600482015460ff8082161515608084015261010082048116151560a08401526201000090910416151560c082015285519293509091859087908110610af457610af4613919565b6020908102919091010152610b0a600186613906565b945050505b80610b198161392f565b9150506109eb565b50949350505050565b60606000610b3760085490565b905060008060005b83811015610b995733600c6000610b57846001613906565b81526020810191909152604001600020600201546001600160a01b031603610b8757610b84600184613906565b92505b80610b918161392f565b915050610b3f565b5060008267ffffffffffffffff811115610bb557610bb561353a565b604051908082528060200260200182016040528015610bee57816020015b610bdb61326d565b815260200190600190039081610bd35790505b50905060005b84811015610b215733600c6000610c0c846001613906565b81526020810191909152604001600020600201546001600160a01b031603610ceb576000610c3b826001613906565b6000818152600c6020908152604091829020825160e0810184528154815260018201546001600160a01b039081169382019390935260028201549092169282019290925260038201546060820152600482015460ff8082161515608084015261010082048116151560a08401526201000090910416151560c082015285519293509091859087908110610cd057610cd0613919565b6020908102919091010152610ce6600186613906565b945050505b80610cf58161392f565b915050610bf4565b610d0733826129c4565b610d235760405162461bcd60e51b81526004016107bb90613948565b61085c838383612a42565b610d3661296b565b6000818152600c60205260409020600101546001600160a01b03163314610d9f5760405162461bcd60e51b815260206004820152601860248201527f4f6e6c792073656c6c65722063616e207769746864726177000000000000000060448201526064016107bb565b6000818152600c6020526040902060040154610100900460ff16610df75760405162461bcd60e51b815260206004820152600f60248201526e125d195b481b9bdd081b1a5cdd1959608a1b60448201526064016107bb565b6000818152600c602052604090206004015460ff1615610e4d5760405162461bcd60e51b8152602060048201526011602482015270125d195b48185b1c9958591e481cdbdb19607a1b60448201526064016107bb565b6000818152600c6020526040902060048101805461ff0019169055600281018054336001600160a01b0319918216811790925560019092018054909216909155610e9990309083612a42565b6109646001600755565b610eab61296b565b60008111610efb5760405162461bcd60e51b815260206004820152601c60248201527f5072696365206d757374206265206174206c656173742031207765690000000060448201526064016107bb565b600a543414610f585760405162461bcd60e51b8152602060048201526024808201527f5072696365206d75737420626520657175616c20746f206c697374696e6720706044820152637269636560e01b60648201526084016107bb565b33610f6283611399565b6001600160a01b031614610fb85760405162461bcd60e51b815260206004820152601960248201527f4f6e6c7920746f6b656e206f776e65722063616e206c6973740000000000000060448201526064016107bb565b6040805160e0810182528381523360208083018281523084860181815260608601888152600060808801818152600160a08a0181815260c08b018481528e8552600c9099529a90922098518955945190880180546001600160a01b03199081166001600160a01b039384161790915592516002890180549094169116179091555160038601559051600490940180549551925161ffff1990961694151561ff00191694909417610100921515929092029190911762ff0000191662010000941515949094029390931790915561108e9184612a42565b604080513381523060208201529081018290526000606082015282907fb640004f1d14576d0c209e240cad0410e0d8c0c33a09375861fbadae2588a98d9060800160405180910390a26110e16001600755565b5050565b61085c838383604051806020016040528060008152506119cb565b6060600061110d60085490565b905060008060005b838110156111d25733600c600061112d846001613906565b81526020810191909152604001600020600101546001600160a01b031614801561117e5750600c6000611161836001613906565b8152602081019190915260400160002060040154610100900460ff165b80156111ad5750600c6000611194836001613906565b815260208101919091526040016000206004015460ff16155b156111c0576111bd600184613906565b92505b806111ca8161392f565b915050611115565b5060008267ffffffffffffffff8111156111ee576111ee61353a565b60405190808252806020026020018201604052801561122757816020015b61121461326d565b81526020019060019003908161120c5790505b50905060005b84811015610b215733600c6000611245846001613906565b81526020810191909152604001600020600101546001600160a01b03161480156112965750600c6000611279836001613906565b8152602081019190915260400160002060040154610100900460ff165b80156112c55750600c60006112ac836001613906565b815260208101919091526040016000206004015460ff16155b156113875760006112d7826001613906565b6000818152600c6020908152604091829020825160e0810184528154815260018201546001600160a01b039081169382019390935260028201549092169282019290925260038201546060820152600482015460ff8082161515608084015261010082048116151560a08401526201000090910416151560c08201528551929350909185908790811061136c5761136c613919565b6020908102919091010152611382600186613906565b945050505b806113918161392f565b91505061122d565b6000818152600260205260408120546001600160a01b0316806106885760405162461bcd60e51b8152602060048201526018602482015277115490cdcc8c4e881a5b9d985b1a59081d1bdad95b88125160421b60448201526064016107bb565b60006001600160a01b0382166114635760405162461bcd60e51b815260206004820152602960248201527f4552433732313a2061646472657373207a65726f206973206e6f7420612076616044820152683634b21037bbb732b960b91b60648201526084016107bb565b506001600160a01b031660009081526003602052604090205490565b600061148f600880546001019055565b600061149a60085490565b90506114a63382612ba6565b6114b08185612d31565b6000818152600d6020526040902080546001600160a01b0319163317905582156114e3576114de8184610ea3565b6115a9565b6040805160e0810182528281526000602080830182815233848601908152606085018481526080860185815260a0870186815260c088018781528a8852600c909652979095209551865591516001860180546001600160a01b03199081166001600160a01b0393841617909155915160028701805490931691161790555160038401559051600490920180549351915161ffff1990941692151561ff00191692909217610100911515919091021762ff0000191662010000921515929092029190911790555b9392505050565b6115b86132a9565b6000828152600e60209081526040918290208251610160810184528154815260018201549281019290925260028101546001600160a01b0390811693830193909352600380820154606084015260048201546080840152600582015490931660a0830152600681015460c0830152600781015460e083015260088101549192909161010084019160ff909116908111156116545761165461361f565b60038111156116655761166561361f565b81526008919091015460ff61010082048116151560208401526201000090910416151560409091015292915050565b60606001805461069d906138a3565b6116ab61296b565b6000818152600e602052604090206008810154610100900460ff166117075760405162461bcd60e51b815260206004820152601260248201527141756374696f6e206e6f742061637469766560701b60448201526064016107bb565b8060070154421061174e5760405162461bcd60e51b8152602060048201526011602482015270105d58dd1a5bdb881a185cc8195b991959607a1b60448201526064016107bb565b60028101546001600160a01b0316330361179e5760405162461bcd60e51b815260206004820152601160248201527014d95b1b195c8818d85b9b9bdd08189a59607a1b60448201526064016107bb565b806003015434116118005760405162461bcd60e51b815260206004820152602660248201527f426964206d75737420626520686967686572207468616e207374617274696e6760448201526520707269636560d01b60648201526084016107bb565b806004015434116118675760405162461bcd60e51b815260206004820152602b60248201527f426964206d75737420626520686967686572207468616e2063757272656e742060448201526a1a1a59da195cdd08189a5960aa1b60648201526084016107bb565b60058101546001600160a01b0316156118bb5760048101546000838152600f6020908152604080832060058601546001600160a01b03168452909152812080549091906118b5908490613906565b90915550505b34600482018190556005820180546001600160a01b031916339081179091558254604080519283526020830193909352849290917f6f7e354ea3ab5c288aea37fce29c603f9a98a3b040f6d8f32f10e192ec47ff6a91015b60405180910390a3506109646001600755565b6000818152600e602052604081206008810154610100900460ff1680156115a957506007015442101592915050565b6110e1338383612dfc565b600b546001600160a01b031633146119c65760405162461bcd60e51b8152602060048201526024808201527f4f6e6c79206d61726b6574706c616365206f776e65722063616e2063616c6c206044820152637468697360e01b60648201526084016107bb565b600a55565b6119d533836129c4565b6119f15760405162461bcd60e51b81526004016107bb90613948565b6119fd84848484612eca565b50505050565b611a0b61296b565b6000818152600e602052604090206008810154610100900460ff16611a675760405162461bcd60e51b815260206004820152601260248201527141756374696f6e206e6f742061637469766560701b60448201526064016107bb565b806007015442101580611a86575060028101546001600160a01b031633145b611aca5760405162461bcd60e51b8152602060048201526015602482015274105d58dd1a5bdb881b9bdd081e595d08195b991959605a1b60448201526064016107bb565b60088101805462ffff001916620100001790556000828152600c60205260409020600401805462ff00001916905560058101546001600160a01b031615611c5a5760058101546000838152600c602052604090206002810180546001600160a01b0319166001600160a01b0390931692909217909155600401805460ff19166001179055611b5c600980546001019055565b6005810154611b769030906001600160a01b031684612a42565b600b54600a546040516001600160a01b039092169181156108fc0291906000818181858888f19350505050158015611bb2573d6000803e3d6000fd5b506002810154600a5460048301546001600160a01b03909216916108fc91611bd9916138f3565b6040518115909202916000818181858888f19350505050158015611c01573d6000803e3d6000fd5b50805460058201546004830154604080516001600160a01b03909316835260208301919091528492917f2b2b6e4d2c04cd042f5fb49ebe25d9518176619265c44683e96df25989321362910160405180910390a3611ce5565b600281810180546000858152600c6020526040902092830180546001600160a01b039283166001600160a01b0319918216179091556001909301805490931690925554611caa9130911684612a42565b805460408051600080825260208201528492917f2b2b6e4d2c04cd042f5fb49ebe25d9518176619265c44683e96df259893213629101611913565b506109646001600755565b611cf861296b565b33611d0284611399565b6001600160a01b031614611d635760405162461bcd60e51b815260206004820152602260248201527f4f6e6c7920746f6b656e206f776e65722063616e20737461727420617563746960448201526137b760f11b60648201526084016107bb565b6000838152600c6020526040902060040154610100900460ff1615611dca5760405162461bcd60e51b815260206004820152601760248201527f4974656d206973206c697374656420666f722073616c6500000000000000000060448201526064016107bb565b6000838152600c602052604090206004015462010000900460ff1615611e325760405162461bcd60e51b815260206004820152601760248201527f4974656d20616c726561647920696e2061756374696f6e00000000000000000060448201526064016107bb565b60008211611e905760405162461bcd60e51b815260206004820152602560248201527f5374617274696e67207072696365206d75737420626520677265617465722074604482015264068616e20360dc1b60648201526084016107bb565b611e9e601080546001019055565b6000611ea960105490565b90506000611eb683612efd565b90506000611ec48242613906565b9050604051806101600160405280848152602001878152602001336001600160a01b031681526020018681526020016000815260200160006001600160a01b03168152602001428152602001828152602001856003811115611f2857611f2861361f565b815260016020808301829052600060409384018190528a8152600e8252839020845181559084015181830155918301516002830180546001600160a01b03199081166001600160a01b039384161790915560608501516003808601919091556080860151600486015560a0860151600586018054909316931692909217905560c0840151600684015560e084015160078401556101008401516008840180549193909260ff19909216918490811115611fe357611fe361361f565b0217905550610120820151600890910180546101409093015115156201000090810262ff00001993151561010002841662ffff0019909516949094179390931790556000888152600c60205260409020600481018054909216909217905560010180546001600160a01b03191633908117909155612062903088612a42565b85837f44a91099b67ffa3329e7bc3a7b2b9994bfc4d2911f6509429b92b5fa4420eef7338885896040516120999493929190613995565b60405180910390a350505061085c6001600755565b6120b661296b565b6000818152600c6020526040902060038101546001909101546001600160a01b03163482146121275760405162461bcd60e51b815260206004820152601e60248201527f506c65617365207375626d6974207468652061736b696e67207072696365000060448201526064016107bb565b6000838152600c6020526040902060040154610100900460ff1661218d5760405162461bcd60e51b815260206004820152601860248201527f4974656d206e6f74206c697374656420666f722073616c65000000000000000060448201526064016107bb565b6000838152600c602052604090206004015460ff16156121e35760405162461bcd60e51b8152602060048201526011602482015270125d195b48185b1c9958591e481cdbdb19607a1b60448201526064016107bb565b6000838152600c602052604090206002810180546001600160a01b03191633179055600401805461ffff19166001179055612222600980546001019055565b61222d303385612a42565b600b54600a546040516001600160a01b039092169181156108fc0291906000818181858888f19350505050158015612269573d6000803e3d6000fd5b506040516001600160a01b038216903480156108fc02916000818181858888f1935050505015801561229f573d6000803e3d6000fd5b50604080516001600160a01b038316815233602082015290810183905283907f150ffca547cf855e7fcf5daa82e41c6523b5fb2c8b1309bbb6cf2f87c6ae5a319060600160405180910390a250506109646001600755565b6122ff61326d565b506000908152600c6020908152604091829020825160e0810184528154815260018201546001600160a01b03908116938201939093526002820154909216928201929092526003820154606082015260049091015460ff8082161515608084015261010082048116151560a08401526201000090910416151560c082015290565b606061238b8261289e565b600082815260066020526040812080546123a4906138a3565b80601f01602080910402602001604051908101604052809291908181526020018280546123d0906138a3565b801561241d5780601f106123f25761010080835404028352916020019161241d565b820191906000526020600020905b81548152906001019060200180831161240057829003601f168201915b50505050509050600061243b60408051602081019091526000815290565b9050805160000361244d575092915050565b81511561247f5780826040516020016124679291906139c9565b60405160208183030381529060405292505050919050565b61248884612f8e565b949350505050565b6060600061249d60085490565b90506000808267ffffffffffffffff8111156124bb576124bb61353a565b6040519080825280602002602001820160405280156124f457816020015b6124e161326d565b8152602001906001900390816124d95790505b50905060005b838110156125d157600061250f826001613906565b6000818152600c6020908152604091829020825160e0810184528154815260018201546001600160a01b039081169382019390935260028201549092169282019290925260038201546060820152600482015460ff8082161515608084015261010082048116151560a08401526201000090910416151560c0820152855192935090918590879081106125a4576125a4613919565b60209081029190910101526125ba600186613906565b9450505080806125c99061392f565b9150506124fa565b509392505050565b606060006125e660105490565b9050600060015b82811161266f5760015b600854811161265c576000818152600e60205260409020548214801561263357506000818152600e6020526040902060080154610100900460ff165b1561264a57826126428161392f565b93505061265c565b806126548161392f565b9150506125f7565b50806126678161392f565b9150506125ed565b5060008167ffffffffffffffff81111561268b5761268b61353a565b6040519080825280602002602001820160405280156126c457816020015b6126b16132a9565b8152602001906001900390816126a95790505b509050600060015b8481116128445760015b6008548111612831576000818152600e60205260409020548214801561271257506000818152600e6020526040902060080154610100900460ff165b1561281f576000818152600e60209081526040918290208251610160810184528154815260018201549281019290925260028101546001600160a01b0390811693830193909352600380820154606084015260048201546080840152600582015490931660a0830152600681015460c0830152600781015460e083015260088101549192909161010084019160ff909116908111156127b3576127b361361f565b60038111156127c4576127c461361f565b81526008919091015460ff610100820481161515602084015262010000909104161515604090910152845185908590811061280157612801613919565b602002602001018190525082806128179061392f565b935050612831565b806128298161392f565b9150506126d6565b508061283c8161392f565b9150506126cc565b5090949350505050565b60006001600160e01b031982166380ac58cd60e01b148061287f57506001600160e01b03198216635b5e139f60e01b145b8061068857506301ffc9a760e01b6001600160e01b0319831614610688565b6000818152600260205260409020546001600160a01b03166109645760405162461bcd60e51b8152602060048201526018602482015277115490cdcc8c4e881a5b9d985b1a59081d1bdad95b88125160421b60448201526064016107bb565b600081815260046020526040902080546001600160a01b0319166001600160a01b038416908117909155819061293282611399565b6001600160a01b03167f8c5be1e5ebec7d5bd14f71427d1e84f3dd0314c0f7b2291e5b200ac8c7c3b92560405160405180910390a45050565b6002600754036129bd5760405162461bcd60e51b815260206004820152601f60248201527f5265656e7472616e637947756172643a207265656e7472616e742063616c6c0060448201526064016107bb565b6002600755565b6000806129d083611399565b9050806001600160a01b0316846001600160a01b03161480612a1757506001600160a01b0380821660009081526005602090815260408083209388168352929052205460ff165b806124885750836001600160a01b0316612a3084610720565b6001600160a01b031614949350505050565b826001600160a01b0316612a5582611399565b6001600160a01b031614612a7b5760405162461bcd60e51b81526004016107bb906139f8565b6001600160a01b038216612add5760405162461bcd60e51b8152602060048201526024808201527f4552433732313a207472616e7366657220746f20746865207a65726f206164646044820152637265737360e01b60648201526084016107bb565b826001600160a01b0316612af082611399565b6001600160a01b031614612b165760405162461bcd60e51b81526004016107bb906139f8565b600081815260046020908152604080832080546001600160a01b03199081169091556001600160a01b0387811680865260038552838620805460001901905590871680865283862080546001019055868652600290945282852080549092168417909155905184937fddf252ad1be2c89b69c2b068fc378daa952ba7f163c4a11628f55a4df523b3ef91a4505050565b6001600160a01b038216612bfc5760405162461bcd60e51b815260206004820181905260248201527f4552433732313a206d696e7420746f20746865207a65726f206164647265737360448201526064016107bb565b6000818152600260205260409020546001600160a01b031615612c615760405162461bcd60e51b815260206004820152601c60248201527f4552433732313a20746f6b656e20616c7265616479206d696e7465640000000060448201526064016107bb565b6000818152600260205260409020546001600160a01b031615612cc65760405162461bcd60e51b815260206004820152601c60248201527f4552433732313a20746f6b656e20616c7265616479206d696e7465640000000060448201526064016107bb565b6001600160a01b038216600081815260036020908152604080832080546001019055848352600290915280822080546001600160a01b0319168417905551839291907fddf252ad1be2c89b69c2b068fc378daa952ba7f163c4a11628f55a4df523b3ef908290a45050565b6000828152600260205260409020546001600160a01b0316612dac5760405162461bcd60e51b815260206004820152602e60248201527f45524337323155524953746f726167653a2055524920736574206f66206e6f6e60448201526d32bc34b9ba32b73a103a37b5b2b760911b60648201526084016107bb565b6000828152600660205260409020612dc48282613a8b565b506040518281527ff8e1a15aba9398e019f0b49df1a4fde98ee17ae345cb5f6b5e2c27f5033e8ce79060200160405180910390a15050565b816001600160a01b0316836001600160a01b031603612e5d5760405162461bcd60e51b815260206004820152601960248201527f4552433732313a20617070726f766520746f2063616c6c65720000000000000060448201526064016107bb565b6001600160a01b03838116600081815260056020908152604080832094871680845294825291829020805460ff191686151590811790915591519182527f17307eab39ab6107e8899845ad3d59bd9653f200f220920489ca2b5937696c31910160405180910390a3505050565b612ed5848484612a42565b612ee184848484613001565b6119fd5760405162461bcd60e51b81526004016107bb90613b4b565b600080826003811115612f1257612f1261361f565b03612f1f5750603c919050565b6001826003811115612f3357612f3361361f565b03612f41575061012c919050565b6002826003811115612f5557612f5561361f565b03612f635750610258919050565b6003826003811115612f7757612f7761361f565b03612f855750610708919050565b5061012c919050565b6060612f998261289e565b6000612fb060408051602081019091526000815290565b90506000815111612fd057604051806020016040528060008152506115a9565b80612fda84613102565b604051602001612feb9291906139c9565b6040516020818303038152906040529392505050565b60006001600160a01b0384163b156130f757604051630a85bd0160e11b81526001600160a01b0385169063150b7a0290613045903390899088908890600401613b9d565b6020604051808303816000875af1925050508015613080575060408051601f3d908101601f1916820190925261307d91810190613bda565b60015b6130dd573d8080156130ae576040519150601f19603f3d011682016040523d82523d6000602084013e6130b3565b606091505b5080516000036130d55760405162461bcd60e51b81526004016107bb90613b4b565b805181602001fd5b6001600160e01b031916630a85bd0160e11b149050612488565b506001949350505050565b6060600061310f83613195565b600101905060008167ffffffffffffffff81111561312f5761312f61353a565b6040519080825280601f01601f191660200182016040528015613159576020820181803683370190505b5090508181016020015b600019016f181899199a1a9b1b9c1cb0b131b232b360811b600a86061a8153600a850494508461316357509392505050565b60008072184f03e93ff9f4daa797ed6e38ed64bf6a1f0160401b83106131d45772184f03e93ff9f4daa797ed6e38ed64bf6a1f0160401b830492506040015b6d04ee2d6d415b85acef81000000008310613200576d04ee2d6d415b85acef8100000000830492506020015b662386f26fc10000831061321e57662386f26fc10000830492506010015b6305f5e1008310613236576305f5e100830492506008015b612710831061324a57612710830492506004015b6064831061325c576064830492506002015b600a83106106885760010192915050565b6040805160e081018252600080825260208201819052918101829052606081018290526080810182905260a0810182905260c081019190915290565b604051806101600160405280600081526020016000815260200160006001600160a01b03168152602001600081526020016000815260200160006001600160a01b031681526020016000815260200160008152602001600060038111156133125761331261361f565b815260006020820181905260409091015290565b6001600160e01b03198116811461096457600080fd5b60006020828403121561334e57600080fd5b81356115a981613326565b60005b8381101561337457818101518382015260200161335c565b50506000910152565b60008151808452613395816020860160208601613359565b601f01601f19169290920160200192915050565b6020815260006115a9602083018461337d565b6000602082840312156133ce57600080fd5b5035919050565b80356001600160a01b03811681146133ec57600080fd5b919050565b6000806040838503121561340457600080fd5b61340d836133d5565b946020939093013593505050565b80518252602081015160018060a01b03808216602085015280604084015116604085015250506060810151606083015260808101511515608083015260a0810151151560a083015260c0810151151560c08301525050565b6020808252825182820181905260009190848201906040850190845b818110156134b5576134a283855161341b565b9284019260e0929092019160010161348f565b50909695505050505050565b6000806000606084860312156134d657600080fd5b6134df846133d5565b92506134ed602085016133d5565b9150604084013590509250925092565b6000806040838503121561351057600080fd5b50508035926020909101359150565b60006020828403121561353157600080fd5b6115a9826133d5565b634e487b7160e01b600052604160045260246000fd5b600067ffffffffffffffff8084111561356b5761356b61353a565b604051601f8501601f19908116603f011681019082821181831017156135935761359361353a565b816040528093508581528686860111156135ac57600080fd5b858560208301376000602087830101525050509392505050565b600080604083850312156135d957600080fd5b823567ffffffffffffffff8111156135f057600080fd5b8301601f8101851361360157600080fd5b61361085823560208401613550565b95602094909401359450505050565b634e487b7160e01b600052602160045260246000fd5b6004811061365357634e487b7160e01b600052602160045260246000fd5b9052565b8051825260208101516020830152604081015161367f60408401826001600160a01b03169052565b50606081015160608301526080810151608083015260a08101516136ae60a08401826001600160a01b03169052565b5060c081015160c083015260e081015160e0830152610100808201516136d682850182613635565b50506101208181015115159083015261014080820151801515828501526119fd565b61016081016106888284613657565b6000806040838503121561371a57600080fd5b613723836133d5565b91506020830135801515811461373857600080fd5b809150509250929050565b6000806040838503121561375657600080fd5b82359150613766602084016133d5565b90509250929050565b6000806000806080858703121561378557600080fd5b61378e856133d5565b935061379c602086016133d5565b925060408501359150606085013567ffffffffffffffff8111156137bf57600080fd5b8501601f810187136137d057600080fd5b6137df87823560208401613550565b91505092959194509250565b60008060006060848603121561380057600080fd5b833592506020840135915060408401356004811061381d57600080fd5b809150509250925092565b60e08101610688828461341b565b6000806040838503121561384957600080fd5b613852836133d5565b9150613766602084016133d5565b6020808252825182820181905260009190848201906040850190845b818110156134b55761388f838551613657565b92840192610160929092019160010161387c565b600181811c908216806138b757607f821691505b6020821081036138d757634e487b7160e01b600052602260045260246000fd5b50919050565b634e487b7160e01b600052601160045260246000fd5b81810381811115610688576106886138dd565b80820180821115610688576106886138dd565b634e487b7160e01b600052603260045260246000fd5b600060018201613941576139416138dd565b5060010190565b6020808252602d908201527f4552433732313a2063616c6c6572206973206e6f7420746f6b656e206f776e6560408201526c1c881bdc88185c1c1c9bdd9959609a1b606082015260800190565b6001600160a01b03851681526020810184905260408101839052608081016139c06060830184613635565b95945050505050565b600083516139db818460208801613359565b8351908301906139ef818360208801613359565b01949350505050565b60208082526025908201527f4552433732313a207472616e736665722066726f6d20696e636f72726563742060408201526437bbb732b960d91b606082015260800190565b601f82111561085c57600081815260208120601f850160051c81016020861015613a645750805b601f850160051c820191505b81811015613a8357828155600101613a70565b505050505050565b815167ffffffffffffffff811115613aa557613aa561353a565b613ab981613ab384546138a3565b84613a3d565b602080601f831160018114613aee5760008415613ad65750858301515b600019600386901b1c1916600185901b178555613a83565b600085815260208120601f198616915b82811015613b1d57888601518255948401946001909101908401613afe565b5085821015613b3b5787850151600019600388901b60f8161c191681555b5050505050600190811b01905550565b60208082526032908201527f4552433732313a207472616e7366657220746f206e6f6e20455243373231526560408201527131b2b4bb32b91034b6b83632b6b2b73a32b960711b606082015260800190565b6001600160a01b0385811682528416602082015260408101839052608060608201819052600090613bd09083018461337d565b9695505050505050565b600060208284031215613bec57600080fd5b81516115a98161332656fea26469706673582212206ed96263efdc9de51862c750b93197e4340226a8a2fe3513e65f9691699b524664736f6c63430008130033",
  "linkReferences": {},
  "deployedLinkReferences": {}
}